:1036480000A8C0003F065B4F666D7D077F6F0008CE
:103658004001414876384000BF86DBCFE6EDFD8764
:10366800FFEF5C77713731393E3836183318361822
:0E367800331821182118211824474E474741C6
:10251300023C0000C111013100012401013000011E
:102523003200420096000042004C000042000000CE
:0125330000A7
:083B6E007F6C7E91DEFEDFFC9E
:013B7600222C
:10394E00E4F53FF540AF40E4FD12000E123B6E056C
:10395E0040E5407002053FC3E53F6480948140E539
:01396E002236
:0E3AF900123ABDBF010475314422753104221A
:10172500E53D453C6003021954783F7C00FDFB7A9A
:10173500007933FE7F07120558122870900055E096
:1017450075F00AA4FFA3E02F24F8F53BD3941840C5
:101755000674E8253BF53BE53B75F00A84C454F077
:10176500FFE53B75F00A84EF25F0F535900057E06D
:1017750024D0C454F0FFA3E024D02FF534A3E024F3
:10178500D0C454F0FFA3E024D02FF533E535C4547D
:101795000FFFE535540FFDE534C4540FF542E5342C
:1017A500540FF54375440CE533C4540FF545E53343
:1017B500540FF5467B0C12398F78467C007D007BF3
:1017C500007A0079337E007F07120558123A5912C4
:1017D5000D8A900060E024D075F00AA4FFA3E024F0
:1017E500D02FF526A3E024D075F00AA4FFA3E024AA
:1017F500D02FF529900066E0FF3395E0FEEF24D069
:10180500FFEE34FFFE7C007D641205CDAA06AB0712
:10181500900065E0FF3395E0FEEF24D0FFEE34FF46
:10182500FE7C037DE81205CDEF2BFBEE3AFA900026
:1018350067E0FF3395E0FEEF24D0FFEE34FFFE7C3A
:10184500007D0A1205CDEF2BFFEE3AFEA3E0FD3336
:1018550095E0FCED24D0FDEC34FFCD2FFFED3EFEF1
:101865007C007D061205CD7C037DE81205DF8F2CFB
:1018750090006EE024D075F00AA4FF90006DE0247E
:10188500D075F064A42FFF90006FE024D02FF52BC6
:10189500A3E024D075F00AA4FFA3E024D02FF52EF1
:1018A500900074E0FF3395E0FEEF24D0FFEE34FFA7
:1018B500FE7C007D641205CDAA06AB07900073E09F
:1018C500FF3395E0FEEF24D0FFEE34FFFE7C037D71
:1018D500E81205CDEF2BFBEE3AFA900075E0FF33E9
:1018E50095E0FEEF24D0FFEE34FFFE7C007D0A126A
:1018F50005CDEF2BFFEE3AFEA3E0FD3395E0FCEDC1
:1019050024D0FDEC34FFCD2FFFED3EFE7C007D069F
:101915001205CD7C037DE81205DF8F2FE5306401CC
:101925006005E531B4180B1214AD900096EEF0A3E6
:10193500EFF0E530B4011890004AE0FEA3E0FFD3D4
:10194500900097E09F900096E09E400375314422F9
:10195500E53D6401453C6003021B73900009E07599
:10196500F00AA4FFA3E02F24F8F53BD39418400612
:1019750074E8253BF53BE53B75F00A84C454F0FF5C
:10198500E53B75F00A84EF25F0F53590000BE02472
:10199500D0C454F0FFA3E024D02FF534A3E024D025
:1019A500C454F0FFA3E024D02FF533E535C4540F1C
:1019B500FFE535540FFDE534C4540FF542E53454C5
:1019C5000FF54375440CE533C4540FF545E5335421
:1019D5000FF5467B0C12398F78467C007D007B0025
:1019E5007A0079337E007F07120558123A59900024
:1019F50014E024D075F00AA4FFA3E024D02FF52627
:101A0500A3E024D075F00AA4FFA3E024D02FF52984
:101A150090001AE0FF3395E0FEEF24D0FFEE34FF8F
:101A2500FE7C007D641205CDAA06AB07900019E087
:101A3500FF3395E0FEEF24D0FFEE34FFFE7C037DFF
:101A4500E81205CDEF2BFBEE3AFA90001BE0FF33D1
:101A550095E0FEEF24D0FFEE34FFFE7C007D0A12F8
:101A650005CDEF2BFFEE3AFEA3E0FD3395E0FCED4F
:101A750024D0FDEC34FFCD2FFFED3EFE7C007D062E
:101A85001205CD7C037DE81205DF8F2C900022E046
:101A950024D075F00AA4FF900021E024D075F064ED
:101AA500A42FFF900023E024D02FF52BA3E024D012
:101AB50075F00AA4FFA3E024D02FF52E900028E0AE
:101AC500FF3395E0FEEF24D0FFEE34FFFE7C007D72
:101AD500641205CDAA06AB07900027E0FF3395E019
:101AE500FEEF24D0FFEE34FFFE7C037DE81205CD2A
:101AF500EF2BFBEE3AFA900029E0FF3395E0FEEF7D
:101B050024D0FFEE34FFFE7C007D0A1205CDEF2BBD
:101B1500FFEE3AFEA3E0FD3395E0FCED24D0FDECAD
:101B250034FFCD2FFFED3EFE7C007D061205CD7CFA
:101B3500037DE81205DF8F2FE53064016005E5318F
:101B4500B4180B1214AD900096EEF0A3EFF0E5304B
:101B5500B4011890004AE0FEA3E0FFD3900097E09F
:0F1B65009F900096E09E4003753144120D8A2236
:102B4400E4FF1235C9BF0119E531540FFF6003BF1B
:102B5400080AEF640360057531018005EF25E0F58F
:102B640031E531540FFFBF010B7F011235C9BF019D
:102B740003753103E531540F640270677F01123528
:102B8400C9EF64016003022C2BAD26AF3212000E94
:102B9400123B6EE53204FFAD2912000E123B6EE5C6
:102BA400322402FFAD2C12000E123B6EE5322403D8
:102BB400FFAD2B12000E123B6EE5322404FFAD2E46
:102BC40012000E123B6EE5322405FFAD2F12000EEB
:102BD400123B6E74102531F531C4540F75F006A400
:102BE400F53222E531540FFFBF040E7F011235C9BF
:102BF400EF6401703275311422E531540F640870AA
:102C0400267F011235C9BF011EE531B418047531A0
:102C14000822753118852B27852E2A852F2D852688
:082C240023852925852C2822B7
:10082600E531540FFFBF0110E4FF12353FBF010849
:10083600E4F53CF53D12394EE531540F640370265C
:100846007F0312353FBF01037531017F0512353F26
:10085600BF0106753C00753D017F0212353FBF01A1
:1008660005E4F53CF53DE531540F640260030209E9
:10087600CB7F0112353FEF640160087F0412353FDC
:10088600BF0105B211020D877F0512353FBF010674
:100896007410253180147F0212353FBF011AE531ED
:1008A60054F024F0FFE531540F4FF531C4540F7561
:1008B600F006A4F532020D87E4FF12353FEF64011E
:1008C6006003020D87AF32123A098F3EE53E75F09E
:1008D6000A84243090009AF0E53E75F00A84E5F02B
:1008E6002430A3F0A3742EF0E53204FF123A098FE8
:1008F6003EE53E75F00A84243090009DF0E53E7595
:10090600F00A84E5F02430A3F0A3742EF0E5322437
:1009160002FF123A098F3EE53E75F00A84243090B4
:1009260000A0F0E53E75F00A84E5F02430A3F0A3BC
:10093600742EF0E5322403FF123A098F3EE53E7528
:10094600F0648424309000A3F0E53E75F00A8475C7
:10095600F00A84E5F02430A3F0E53E75F00A84E55C
:10096600F02430A3F0A3742EF0E5322404FF123AEB
:10097600098F3EE53E75F00A8424309000A7F0E525
:100986003E75F00A84E5F02430A3F0A3742EF0E55A
:10099600322405FF123A098F3EE53E75F00A84249B
:1009A600309000AAF0E53E75F00A84E5F02430A305
:1009B600F0A3742EF07B017A00799A7D137C0012E5
:1009C60038BC020D87E531540F64046003020D6ED6
:1009D600E531640470367F0312353FEF6401702CF5
:1009E600E5307025753001AD307F8012000E852B05
:1009F60027852E2A852F2D852623852925852C2892
:100A0600E4900000F0A3F08003753144E4FF123552
:100A16003FBF0103753124E53164146003020B2FD7
:100A26007F0412353FBF0110E52425E0540FF5245D
:100A36006003020D87020C7B7F0112353FBF010E5A
:100A4600E524C313F5246003020D87020C7B7F05A2
:100A560012353FEF64017051E524540475F019A472
:100A6600FDACF0E524540875F07DA42DFDE5F03CC1
:100A7600FCE524540275F005A42DFFE5F03CFEE5E7
:100A86002454017C002FFFEC3EFE9000AEE02FF0D8
:100A96009000ADE03EF0D3A3E0940F9000ADE0945B
:100AA600275003020D87020BBE7F0212353FEF640B
:100AB600017053E524540475F019A4FDACF0E52447
:100AC600540875F07DA42DFDE5F03CFCE5245402A8
:100AD60075F005A42DFFE5F03CFEE52454017C00ED
:100AE6002FFFEC3EFEC39000AEE09FFF9000ADE00E
:100AF6009EFEF0A3EFF0C3EE94004003020D87E4E0
:100B06009000AD020D697F0312353FEF640160036B
:100B1600020D879000ADE0FEA3E0FF90004AEEF0E4
:100B2600A3EFF0FD7F81020C3FE5316424600302F0
:100B36000C487F0412353FBF0110E52425E0540F11
:100B4600F5246003020D87020C7B7F0112353FBF3F
:100B5600010EE524C313F5246003020D87020C7B06
:100B66007F0512353FEF64017052E524540475F099
:100B760019A4FDACF0E524540875F07DA42DFDE51F
:100B8600F03CFCE524540275F005A42DFFE5F03C8D
:100B9600FEE52454017C002FFFEC3EFE90004DE064
:100BA6002FF090004CE03EF0D3A3E0940F90004C61
:100BB600E094275003020D87E4020D697F02123587
:100BC6003FEF64017053E524540475F019A4FDAC9D
:100BD600F0E524540875F07DA42DFDE5F03CFCE518
:100BE60024540275F005A42DFFE5F03CFEE52454DF
:100BF600017C002FFFEC3EFEC390004DE09FFF906E
:100C0600004CE09EFEF0A3EFF0C3EE94004003021A
:100C16000D87E490004C020D697F0312353FEF64A7
:100C2600016003020D8790004CE0FEA3E0FF9000F8
:100C360098EEF0A3EFF0FD7F8512000E75310402E9
:100C46000D87E53164446003020D877F0412353F4A
:100C5600BF010FE52425E0540FF5246003020D873C
:100C660080137F0112353FBF0111E524C313F5241C
:100C76006003020D87752401020D877F0512353F3B
:100C8600EF64017052E524540475F019A4FDACF02C
:100C9600E524540875F07DA42DFDE5F03CFCE52423
:100CA600540275F005A42DFFE5F03CFEE524540141
:100CB6007C002FFFEC3EFE900001E02FF09000003C
:100CC600E03EF0D3A3E0940F900000E09427500399
:100CD600020D87E4020D697F0212353FEF64017051
:100CE6004FE524540475F019A4FDACF0E52454082E
:100CF60075F07DA42DFDE5F03CFCE524540275F06D
:100D060005A42DFFE5F03CFEE52454017C002FFFF1
:100D1600EC3EFEC3900001E09FFF900000E09EFEC7
:100D2600F0A3EFF0C3EE94005057E4900000803338
:100D36007F0312353FEF64017047900098E0FEA3F1
:100D4600E0FF900000E06E7003A3E06F7033F530B3
:100D56007F03123894AD307F8012000E753104E4A3
:100D6600900000F0A3F08019E531B408147F011259
:100D7600353FEF640160087F0412353FBF0102B2C0
:040D860011020D8ABF
:100D8A00E530B4010B7BFF7A3A79F97F0612328F8C
:100D9A00E531540F6401703D123BA278337C007D2B
:100DAA00007E007F07120558E535C4540FFFE5356C
:100DBA00540FFDE534C4540FF542E534540FF5439E
:100DCA0075440CE533C4540FF545E533540FF54625
:100DDA007B0C12398FE531540FFFBF0316E4F5423D
:100DEA0075430A75440A75450A853D467B227D246A
:100DFA00020EAAE531540F64026009E53164086005
:100E0A0003020EAF201156AF2F7E007C007D0A121E
:100E1A0006348F45E52B75F06484FDC005E52B7516
:100E2A00F00A8475F00A84ABF0E52B75F00A84E5C4
:100E3A00F02414F542E52E75F00A84F543E52E7583
:100E4A00F00A84E5F02414F544AF2F7E007C007D7F
:100E5A000A1206348D46D0057F1E021185AF2C7EFC
:100E6A00007C007D0A1206348F45E52675F00A8457
:100E7A00FBE52675F00A84E5F02414F542E52975A8
:100E8A00F00A84F543E52975F00A84E5F02414F59F
:100E9A0044AF2C7E007C007D0A1206348D467D0A02
:100EAA007F1F021185E531540F640460030210BBF1
:100EBA00E53164047033E530701775420A75430AE8
:100ECA00F5447545207546207B237D257F24021134
:100EDA008575420A75430A75440AE4F54575462143
:100EEA007B0A7D237F25021185E5316414600302A4
:100EFA000F8B9000ADE0FEA3E0FF7C037DE81205B6
:100F0A00DFE5245408131313541F75F014A42FFBA0
:100F1A009000ADE0FEA3E0FF7C007D641205DF7C5B
:100F2A00007D0A1205DFE52454041313543F75F0BB
:100F3A0014A42DFA9000ADE0FEA3E0FF7C007D0A28
:100F4A001205DF7C007D0A1205DFE5245402C31373
:100F5A0075F014A42DF5458A448B4375420A900016
:100F6A00ADE0FEA3E0FF7C007D0A1205DFE5245414
:100F7A000175F014A42DF5467B227D05E4FF0211CC
:100F8A0085E5316424600302102390004CE0FEA33F
:100F9A00E0FF7C037DE81205DFE5245408131313F0
:100FAA00541F75F014A42FFB90004CE0FEA3E0FF41
:100FBA007C007D641205DF7C007D0A1205DFE524D2
:100FCA0054041313543F75F014A42DFA90004CE006
:100FDA00FEA3E0FF7C007D0A1205DF7C007D0A1279
:100FEA0005DFE5245402C31375F014A42DF5458AD0
:100FFA00448B4375420A90004CE0FEA3E0FF7C005C
:10100A007D0A1205DFE524540175F014A42DF54676
:10101A007B227D237F05021185E53164446003024A
:10102A001188900000E0FEA3E0FF7C037DE8120532
:10103A00DFE5245408131313541F75F014A42FFB6F
:10104A00900000E0FEA3E0FF7C007D641205DF7CD7
:10105A00007D0A1205DFE52454041313543F75F08A
:10106A0014A42DFA900000E0FEA3E0FF7C007D0AA4
:10107A001205DF7C007D0A1205DFE5245402C31342
:10108A0075F014A42DF5458A448B4375420A9000E5
:10109A0000E0FEA3E0FF7C007D0A1205DFE5245490
:1010AA000175F014A42DF5467B0A7D0A7F0A021108
:1010BA0085E53164186003021188900096E0FEA36A
:1010CA00E0FF7C277D101205DF7C007D0A1205DF18
:1010DA00AB05C003900096E0FEA3E0FF7C037DE829
:1010EA001205DF7C007D0A1205DFAB05900096E051
:1010FA00FEA3E0FF7C007D641205DF7C007D0A12FE
:10110A0005DFAA05900096E0FEA3E0FF7C007D0AB9
:10111A001205DF7C007D0A1205DF8D458A448B4368
:10112A00D042900096E0FEA3E0FFE4FCFD7B407A0B
:10113A0042790FF8123585E47B0AFAF9F8123585F7
:10114A00AF03AD07C007C005900096E0FEA3E0FF1D
:10115A00E4FCFD7BA07A867901F8123585E47B0AE6
:10116A00FAF9F8123585900096E0FEA3E0FF7C00BC
:10117A007D0A1205DF8D46D005D00712398FE53179
:10118A00B44425E530B4011D7BFF7A367972754483
:10119A000075450E7546F27DFC7F781233FB7F01A0
:0D11AA001238948003753104AF31023BAF61
:03381A0012004D4C
:10381D008F428E418D408C3F7FDB7E0F7D497C40FA
:10382D00AB42AA41A940A83F12013EE4FBFA79340C
:06383D007843120247224D
:1014AD00AC25E41202EEE4FBFA79C8784212024749
:1014BD00C004C005C006C007AC23E41202EED00381
:1014CD00D002D001D00012004DC004C005C006C02E
:1014DD0007AC28E41202EE7B007A40791C784612A4
:1014ED000247D003D002D001D00012381A90013B30
:1014FD00120808AC29E41202EEE4FBFA79C878422E
:10150D00120247C004C005C006C007AC26E4120293
:10151D00EED003D002D001D00012004DC004C005A2
:10152D00C006C007AC2CE41202EE7B007A40791C99
:10153D007846120247D003D002D001D00012381ADB
:10154D00900143120808AC2AE41202EEE4FBFA798A
:10155D00C87842120247C004C005C006C007AC27B8
:10156D00E41202EED003D002D001D00012004DC023
:10157D0004C005C006C007AC2DE41202EE7B007A54
:10158D0040791C7846120247D003D002D001D0001A
:10159D0012004D12381D90013F120808AC2EE412B6
:1015AD0002EEE4FBFA79C87842120247C004C00586
:1015BD00C006C007AC2BE41202EED003D002D0015E
:1015CD00D00012004DC004C005C006C007AC2FE40A
:1015DD001202EE7B007A40791C7846120247D00346
:1015ED00D002D001D00012004D12381D90014712CB
:1015FD000808900143E0F8A3E0F9A3E0FAA3E0FBAB
:10160D0090013BE0FCA3E0FDA3E0FEA3E0FF120090
:10161D004990014F120808900147E0F8A3E0F9A3A3
:10162D00E0FAA3E0FB90013FE0FCA3E0FDA3E0FEA8
:10163D00A3E0FF120049900153120808E4FBFAF9E8
:10164D007840900153E0FCA3E0FDA3E0FEA3E0FF92
:10165D00120247121F50E4F546F545F54475434017
:10166D00122759C004C005C006C007900143E0FC15
:10167D00A3E0FDA3E0FEA3E0FF121F3AC004C005E6
:10168D00C006C00790013BE0FCA3E0FDA3E0FEA374
:10169D00E0FF121F3AD003D002D001D00012013E5C
:1016AD00D003D002D001D00012013EC004C005C04D
:1016BD0006C007E4FBFAF9784090014FE0FCA3E087
:1016CD00FDA3E0FEA3E0FF120247121F50E4F54612
:1016DD00F545F544754340122759D003D002D0018A
:1016ED00D00012004D122E581236C47BC07A8A7962
:1016FD009B784912013E90014B120808E4FBFA79E0
:10170D0020784190014BE0FCA3E0FDA3E0FEA3E0B7
:07171D00FF12024712032234
:0117240022A2
:102C2C00E4F53CF53D1239CF123A25783F7C007D16
:102C3C00007B007A0079337E007F0712055812283A
:102C4C00707F981236FF12396F123ACC1239EC7D24
:102C5C0007E4FF123B80AF31123BAF7F807E257DB6
:102C6C00007C00123384E4F5437F807E25FDFC124A
:102C7C002CF57544FF7545367546807547007548CB
:102C8C00067B017A00794E7D487C001237617BFF10
:102C9C007A1779257F0912328F7BFF7A1979557F44
:102CAC000A12328F7544FF7545367546807547009C
:102CBC007548067B017A0079027D487C001237301A
:102CCC007BFF7A2B79447F0412328F7BFF7A087951
:102CDC00267F0712328F7BFF7A0D798A7F021232A0
:092CEC008F123BB512368680FB05
:093B77008B88898C88898F88896C
:102534005201298686008686008686008686008665
:09254400860086860041011E0993
:03002B00023BA9EC
:063BA90053BCEFD2123202
:021D4600154F37
:101D4800201203021EEFC21290011DE0B4090040E8
:101D580003021ED1901D63F8282873021DAA021DD4
:101D68007E021D90021DBC021D7E021D90021DD325
:101D7800021D7E021D90AFBDEFFEADBE7C00E42DBE
:101D8800FFEC3E90011F803CAFBDEFFEADBE7C0076
:101D9800E42DFFEC3E900121F0A3EFF0751A01024B
:101DA8001ED7AFBDEFFEADBE7C00E42DFFEC3E902C
:101DB80001238010AFBDEFFEADBE7C00E42DFFEC2B
:101DC8003E900125F0A3EFF0021ED7AFBDEFFEADA8
:101DD800BE7C00E42DFFEC3E900127F0A3EFF090CD
:101DE8000127E0FEA3E07807CEC313CE13D8F9A8E5
:101DF8004FF6C394065013A84FE675F003A42429A0
:101E0800F582E43401F583E014F090011EE014F04B
:101E18006003021ED77409F0A84FE4F6A84FE6FF46
:101E2800C394064003021ED7EF75F003A42429F5D6
:101E380082E43401F583E0C39480502AE6FF75F00C
:101E480003A4242AF582E43401F583E0D394804086
:101E580040EF75F003A4242BF582E43401F5837474
:101E680001F0F51B802BA84FE6FF75F003A4242A88
:101E7800F582E43401F583E0C394805014EF75F0E3
:101E880003A4242BF582E43401F5837402F0751B56
:101E980001A84FE6FF75F003A42429F582E4340174
:101EA800F583E0FEEF75F003A4242AF582E43401FB
:101EB800F583EEF0E675F003A42429F582E43401F5
:101EC800F5837486F006021E2490011D74FFF090BD
:101ED800011DE0D39407400374FFF090011DE00456
:071EE800F0903B7793F5BC7D
:031EEF00054F227A
:023B0700154F58
:093B0900A84FA61BE4F51BE6FF22
:033B1200054F223A
:023B1500154F4A
:093B1700A84FA61AE4F51AE6FF16
:033B2000054F222C
:1036FF008F9D75BC88439720D2AD9000F474FFF076
:10370F00A3741DF0A37446F0A374FFF0A3743BF0F1
:10371F00A37407F0A374FFF0A3743BF0A37415F028
:01372F002277
:070003007B017A01791F2245
:10353F00C3EF64809480403BD3EF64809485503315
:10354F00EFFD3395E0FC90012B75F003ED1208149D
:10355F00EC75F003A42583F583E0FE90012B75F045
:10356F0003ED120814EC75F003A42583F583E4F042
:05357F00AF06227F03EE
:013584002224
:04386C00154F154F90
:10387000123B89A84FA60608A607A84FE6FE08E651
:0F388000FF4E600BEF24FFFFEE34FFFE123B9272
:05388F00054F054F226A
:10396F0053B1EF43B21012003EE4F5D975DA49D2E4
:10397F00DE9000EE74FFF0A37438F0A3746CF022A5
:08330C008E458F468C478D4869
:10331400123B89EF4E7066AF48AE47123B92C3E54D
:1033240046940AE5459400404BE47B18FAF9F8907A
:1033340036481207E8120721C006C007AE45AF465B
:10334400AB07AA06E4F9F8D007D006120721AB07A9
:10335400AA06AFF9EFFEADE97C00E42DFFEC3ECF09
:103364002BCF3AAD07FCAF03AE02123A9CD2D8433E
:0F337400DA01800612003E53DAFE7F02227F0349
:013383002227
:0C3B4C00123B89EF4E7002FF227F012225
:102A5B00E4F58090019CE0FFB40800505F902A6F72
:102A6B00F8282873022A87022A8D022A93022A99B0
:102A7B00022A9F022AA9022AB3022ABDC2A3C2A21A
:102A8B008016C2A3C2A2801AC2A3C2A2801EC2A376
:102A9B00C2A28022C2A3D2A2C2A1C2A08020C2A382
:102AAB00D2A2C2A1D2A08016C2A3D2A2D2A1C2A08E
:102ABB00800CC2A3D2A2D2A1D2A08002D2A3C3EF18
:102ACB0064809488502990019CE0FF3395E0FE745C
:102ADB00932FF58274013EF583E0FF3395E0FE748E
:102AEB004C2FF58274363EF583E493F580801E906F
:102AFB00019CE0FFB408133395E0FE74932FF5822D
:102B0B0074013EF583E0F5808003E4F5809001923B
:102B1B00E0FF90019CE004FEF0D3EF6480F8EE64DC
:102B2B0080984014E0D36480948850047408F02299
:092B3B00900191E090019CF02250
:103A2500E4F5937594FF5395F043960F9000D97480
:0B3A3500FFF0A3742AF0A3745BF022E2
:093B8000900191EFF0A3EDF02299
:10398F00900193EFF0A3EDF0A3EBF0A3E542F0A3CA
:10399F00E543F0A3E544F0A3E545F0A3E546F022A7
:063BAF0090019BEFF022E3
:10254D00014D0049019E949400949400949400418F
:03255D00019D1EBF
:02263600154F3E
:1026380020B20690019EE014F020B3069001A1E0BC
:1026480014F02097069001A4E014F090019DE01486
:10265800F06003022756741EF0A84FE4F6A84FE670
:10266800FFC3648094834003022756EF3395E0FE4E
:1026780090019E75F003EF120814EE75F003A4257F
:1026880083F583E0C39480503990019F75F003EF80
:10269800120814EE75F003A42583F583E0D3948023
:1026A800405AE6FF3395E0FE9001A075F003EF1263
:1026B8000814EE75F003A42583F5837401F0F54D35
:1026C800803AA84FE6FF3395E0FE90019F75F0032E
:1026D800EF120814EE75F003A42583F583E0C39484
:1026E8008050199001A075F003EF120814EE75F0F0
:1026F80003A42583F5837402F0754D01A84FE6FF06
:10270800FD3395E0FC90019E75F003ED120814EC82
:1027180075F003A42583F583E0FE90019F75F0030F
:10272800ED120814EC75F003A42583F583EEF0EFA1
:102738003395E0FE90019E75F003EF120814EE75D4
:0E274800F003A42583F5837494F00602266541
:03275600054F220A
:023B2300154F3C
:093B2500A84FA64DE4F54DE6FFA2
:033B2E00054F221E
:1039CF009000DF74FFF0A3743BF0A37423F090001A
:0D39DF00DC74FFF0A37426F0A37436F02210
:1035C900EF600764016003BF0233EFFD3395E0FC50
:1035D9009001A075F003ED120814EC75F003A42511
:1035E90083F583E0FE9001A075F003ED120814EC59
:0F35F90075F003A42583F583E4F0AF06227F036A
:01360800229F
:102560004100AF0A4100D80A41011C0A040E0000D4
:1025700000000114004601160000FFFF8FFFC10D8F
:10258000C105C108C101C10E602400B4FF000AFFEB
:10259000000AFF000AFF000AFF000AFF000AFF000E
:1025A0000AFF000AFF000AFF000AFF000AFF000AF4
:1025B000603600D9FF000AFF000AFF0026FF000A6C
:1025C000FF0026FF000AFF0026FF000AFF000AFFA7
:1025D000000AFF0026FF0026FF0026FF0026FF005E
:0A25E0000AFF000AFF000AFF000ACC
:01000A0022D3
:030026007F002236
:1034F800438E805389F07BE07A28790178009036F2
:10350800481207E8123585EFF404F58A7BE07A283B
:10351800790178009036481207E8123585C3E49F90
:10352800FFE49EFE74019DFDE49CFC78081207D41C
:073538008F8CD28CD2A92276
:03000B000234A616
:0434A600C0E0C0D0F2
:1034AA00D5080A75084C300D020514D20DA2037214
:1034BA00045036150AE50A7030850C0AD207300A1C
:1034CA0017E50D6007150D438F01801D538FFEC24E
:1034DA00B5D51615C20A8011050BE50BD394064023
:0934EA0008C203E5136002D206DA
:0534F300D0D0D0E03252
:10345300300E47C20E9036481207E878101207D490
:103463008E1C8F1D9000B2E0FEA3E0FFE4FCFD7B09
:1034730019FAF9F8120696C006C007AE1CAF1DABC9
:1034830007AA06E4F9F8D007D006123585780312A7
:1034930007D4900114EEF0A3EFF0900114E0FEA323
:0234A300E0FF48
:0134A5002204
:093B8900900116E0FEA3E0FF220A
:093B9200900116EEF0A3EFF02201
:103A9C0090011AEEF0A3EFF0900118ECF0A3EDF00A
:013AAC0022F7
:03003E00C2B42227
:03003B00022EFE94
:102EFE00C0E0C083C082C0D075D000C004C005C081
:032F0E0006C007F3
:102F110030DF04C2DF807D30DA04C2DA807630D956
:102F21003DC2D9AFFBEFFEADEB7C00E42DFFEC3EE3
:102F310020000E9000B0F0A3EFF075DB11D20080FD
:102F410053FE9000B0E0FCA3E0FDC3EF9DFFEE9CBB
:102F5100A3F0A3EFF075DB00C200D20E803630D8AB
:102F610033C2D8900116E07002A3E06022B2B4909F
:102F71000118E0FEA3E0F5EAEEF5FAA3E0FEA3E016
:102F8100FF900119E02FF0900118E03EF08005C29A
:042F9100B453DAFE5D
:102F9500D007D006D005D004D0D0D082D083D0E0E1
:012FA50032F9
:063BB5001234F8D2AF2229
:103204003004047F0180027F00200A047E018002D2
:103214007E00EE5F6074E515C39509506830023690
:10322400750D01E515131313541FAB17AA18A9192B
:10323400F58275830012057EFFE515540704FEEF41
:10324400A806088002C333D8FC30D705751603805E
:103254002F751601802AAB17AA18A91975F002E573
:1032640015A4F58285F08312057EF50DE51575F03C
:1032740002A429F9EA35F0FA90000112057EF51648
:0A3284000515D20A22C204438F1080
:01328E00221D
:10296E009000AFE014F0701F740AF0D2059000D8FA
:10297E00E014F07012740AF0D20890011CE014F00A
:10298E007005740AF0D2019000D9A3E0FAA3E0F921
:10299E001208209000DCA3E0FAA3E0F912082090C0
:1029AE0000E8A3E0FAA3E0F91208209000F4A3E0F7
:1029BE00FAA3E0F9120820900103A3E0FAA3E0F9CC
:1029CE0012082090010CA3E0FAA3E0F9120820905F
:1029DE0000FAA3E0FAA3E0F9120820EF600C9000D1
:1029EE00CCA3E0FAA3E0F91208209000FDA3E0FAD0
:1029FE00A3E0F9120820EF600E9000CFA3E0FAA337
:102A0E00E0F9120820D20BE512D394004016D5122D
:102A1E003030090C9000D2A3E0FAA3E0F91208209E
:102A2E00D20C801D900100A3E0FAA3E0F912082059
:102A3E00EF600E9000D2A3E0FAA3E0F9120820D2C4
:0D2A4E000C9000B4A3E0FAA3E0F902082008
:1030E5009000EEA3E0FAA3E0F91208209000F1A306
:1030F500E0FAA3E0F91208209000E2A3E0FAA3E0C9
:10310500F91208209000B7A3E0FAA3E0F91208200D
:103115009000DFA3E0FAA3E0F9120820EF600C901D
:1031250000C0A3E0FAA3E0F91208209000E5A3E0AF
:10313500FAA3E0F9120820EF600C9000C6A3E0FAAC
:10314500A3E0F91208209000F7A3E0FAA3E0F91232
:103155000820EF600C9000C9A3E0FAA3E0F912087B
:103165002030060EC2069000D5A3E0FAA3E0F912BE
:033175000820220D
:103609009000BAA3E0FAA3E0F91208209000EBA316
:10361900E0FAA3E0F9120820EF600C9000C3A3E0E0
:10362900FAA3E0F9120820900106A3E0FAA3E0F951
:0F363900120820900109A3E0FAA3E0F90208208B
:1037EF00AF11AE10AD0FAC0E90010F120808900183
:1037FF0013E514F0E4F511F510F50FF50EF514902F
:0B380F0000BDA3E0FAA3E0F9020820CE
:10368600300705C207123204300D05C20D12296E2D
:10369600300505C2051230E5300805C208123609A4
:1036A600300105C2011237EFE5112401F511E435A9
:0E36B60010F510E4350FF50FE4350EF50E2279
:10328F008B3F8A408941EFB40C0050709032A2F806
:10329F002828730232C60232CB0232D00232D50254
:1032AF0032DA0232DF0232E40232E90232EE023265
:1032BF00F30232F80232FD9000B480359000B780EF
:1032CF00309000BA802B9000BD80269000C08021E6
:1032DF009000C6801C9000C380179000C980129088
:1032EF0000CC800D9000CF80089000D2800390001A
:0D32FF00D5E53FF0A3E540F0A3E541F02246
:073B9B007B017A01790F2282
:0725EA00014E004101B000A9
:0D002E0020A409754E019001B07401F0226C
:023B3100154F2E
:093B3300A84FA64EE4F54EE6FF92
:033B3C00054F2210
:1039EC009000EB74FFF0A3743BF0A37431F09000E3
:0D39FC00E874FFF0A37400F0A3742EF02215
:023ABD00154FA3
:0A3ABF009001B0E0A84FF6FFE4F01C
:033AC900054F2284
:1023ED0000C400DC00F701060126014A01720188D4
:1023FD0001B801EE020B024B029302E403100370CD
:10240D0003DC04160497052605C800DC00F701154A
:10241D000126014A0172019F01B801EE022A024B09
:10242D00029302E4033F037003DC04550497052671
:10243D0005C8067D00F701150137014A0172019F9C
:10244D0001D201EE022A026E029302E4033F03A4BD
:10245D0003DC045504DD057505C8067D0749010635
:10246D000126014A015D018801B801EE020B024B04
:10247D00029302BA0310037003DC041604970526B9
:10248D000575062006E007B80126014A017201888C
:10249D0001B801EE022A024B029302E4031003700D
:1024AD0003DC04550497052605C8062006E007B889
:1024BD0008AA014A0172019F01B801EE022A026EBB
:1024CD00029302E4033F037003DC045504DD05268B
:1024DD0005C8067D06E007B808AA09B9015D01889F
:1024ED0001B801D2020B024B029302BA0310037022
:1024FD0003A40416049705260575062006E0074972
:06250D00082D092D0A4D06
:1025F1004D01840300000000000000000000000005
:062DAA008F3F8D408B41BC
:102DB000123B4CEF60037F0122E541D394004006B3
:102DC000E54194114028E541D394174006E541942C
:102DD00021401BE541D394274006E5419431400E44
:102DE000E541D394375007E53FC394F950037F037F
:102DF00022E541603DC4540F75F007A4FDACF0E539
:102E00003F75F015A42DFFE5F03CFEE54154077C2D
:102E1000002FFFEC3EFEEF25E0FFEE33FE74032FA4
:102E2000F58274FB3EF583E493F543740193F54416
:102E30008005E4F543F544AF427E007C017D7712C6
:102E400005CDAD401C1205DFAD07AC06AF44AE4367
:032E500012330C2E
:012E5300225C
:0411B700154F154F6C
:1011BB00123B4CEF70047F0180027F00900184E0B2
:1011CB00FEB402047D0180027D00ED5F600302141A
:1011DB00A8EEB4030AE4900182F0A3F00214A890E5
:1011EB000185E0FFB4F3047E0180027E00EFB4F1D1
:1011FB00047F0180027F00EF4E603E900187E0FE8E
:10120B0075F06484FFEE75F00A8475F00A84ADF016
:10121B00E075F00A84ABF075420A900186E0240772
:10122B00F543900181E0FEC4540F240AF544754543
:10123B000AEE5407F54612398F900185E0FFB4F39F
:10124B00047E0180027E00EFB4F2047F0180027FF6
:10125B0000EF4E7003021301900187E0FD7C007ECE
:10126B00177F701205DFA84FA607E6F975F002A4E9
:10127B00FFC3900190E09F90018FE095F05070E0DC
:10128B00FEA3E0FF7C007D0B1205CDE9FBFD1205F3
:10129B00DFA84F08A60790018FE475F001120680B6
:1012AB00FED3E5F09BEE94004018A84F08E624F916
:1012BB00FFE47EF0A807088005CEC313CE13D8F940
:1012CB00801FA84F08E6FF740F7E00A80708800553
:1012DB00C333CE33CED8F97804CEA2E713CE13D8CE
:1012EB00F8A84F08F6A84F08E6FF123BAF8007E4BB
:1012FB0090018FF0A3F090018BE0FEA3E0FFC39071
:10130B00018EE09F90018DE09E40030214A2123BE0
:10131B004CEF60030214A8900188E0FBA3E0FAA352
:10132B00E0F990018DE0FEA3E0F5828E8312057E3D
:10133B00FFD39437500302143DEF241024FC507953
:10134B00604524FE70030213E81470030213FE249D
:10135B0002600302142C900188E0FBA3E0FAA3E0E7
:10136B00F990018DE475F00112066A85F082F58320
:10137B0012057E900186F090018EE004F07098903B
:10138B00018DE004F08090900188E0FBA3E0FAA3CC
:10139B00E0F990018DE475F00112066A85F082F593
:1013AB008312057E900187F090018EE004F0706E41
:1013BB0090018DE004F0021322900188E0FBA3E082
:1013CB00FAA3E0F990018DE475F00112068085F027
:1013DB0082F58312057E900185F002132290018D18
:1013EB00E475F00112066AAFF0900182F0A3EFF002
:1013FB00021322900182E0FEA3E0FF4E60129001E7
:10140B008DEEF0A3EFF0E4900182F0A3F002132233
:10141B0090018EE004F0700690018DE004F0021351
:10142B002290018EE004F0700690018DE004F00232
:10143B00132290018BE0FEA3E0FFC390018EE09F8F
:10144B0090018DE09E5056900188E0FBA3E0FAA33B
:10145B00E0F990018DE475F00112068085F082F5BC
:10146B008312057E900181F0900186E0FFA3E0FDE1
:10147B00A3E0FBA3E0FAA3E0F990018DE475F00182
:10148B0012068085F082F58312057EF5429001816C
:0D149B00E0FB122DAA80069001847403F07E
:0514A800054F054F2275
:0F3ACC009000F174FFF0A37411F0A374B7F0220F
:1033FB00900184E0B4030DE490018DF0A3F0A3F0F1
:10340B00A3F0C213EF6004900187F0ED600490010C
:10341B0086F0E94A60047F0180027F00E545454460
:10342B0060047E0180027E00EE5F6013900188EBEA
:10343B00F0A3EAF0A3E9F0A3E544F0A3E545F0E53A
:08344B00466004900185F022A7
:10389400BF02047E0180027E00BF01047D0180021C
:1038A4007D00ED4EFEBF03047D0180027D00ED4EE0
:0838B4006005900184EFF02291
:063BBB00900184E0FF22EE
:042601004101AF01E3
:103A4000C295E4FEEF1392CC000000D29500EFC3C4
:083A500013FFC2950EBE08EC45
:013A5800224B
:103A7200E4FEEFC313FF30CC03430780D29500006E
:073A820000C2950EBE08EB27
:013A8900221A
:1037C100F07F851237D4A3EFF07F871237D4A3EFB0
:0337D100F07F89FD
:1037D400C296000000C295000000D29600123A4042
:0A37E400123A72D295000000C2965E
:0137EE0022B8
:0339AF00A3E0FD95
:1039B200C296000000C295000000D29600123A4062
:0D39C200AF05123A40D295000000C29622D7
:073BA2007B017A0179A822E2
:103A590078A87C017D017B007A0079467E007F078A
:093A6900120558E49001AFF022AF
:103A8A00EFD3941F5009EF25E044C1FF0237D47FDA
:023A9A00012207
:10384300AC07AB05ECD3941F501CE4FD7F8E1239FB
:10385300B2EC25E044C0FFAD031239B27D807F8E08
:093863001239B27F00227F01221C
:022FA600154FC5
:102FA8009001AFE060447F811237D4A84FEFF690CC
:102FB80001A8E06F7003023048A84FE6F07F831243
:102FC80037D4A84FEFF6A3E06F6075A84FE6123725
:102FD800C1A3EFF07F8D1237D49001AEEFF07F8B55
:102FE8001237D49001ADEFF080569001A7E0FF04AE
:102FF800F0EFC3940A4049E4F09001AF04F0E4FD17
:103008007F8E1239B29001A8E0FD7F801239B27F1D
:10301800821239AF7F841239AFA3E0FD7F8612395F
:10302800B2A3E0FD7F881239B2A3E0FD7F8A12398E
:10303800B2A3E0FD7F8C1239B27D807F8E1239B247
:03304800054F220F
:102870007F811237D49001A8EFF07F831237D4A361
:10288000EF1237C1A3EFF07F8B1237D4A3EFF07FA5
:102890008D1237D4A3EFF0E4FD7F8E1239B27F1E84
:1028A000123A8AEF64A560047F0180027F009001E4
:1028B000A8E05480FEA3E0D3945940047D01800237
:1028C0007D00ED4EFE9001AAE0D394A440047D016A
:1028D00080027D00ED4EFE9001ABE0D394314004C8
:1028E0007D0180027D00ED4EFE9001ACE0D394129C
:1028F00040047D0180027D00ED4EFE9001ADE0D3ED
:10290000940740047D0180027D00ED4EFE9001AEF3
:10291000E0D3949940047D0180027D00ED4E4F602C
:102920003078467C007D007B007A00793F7E007F16
:1029300007120558123A597DA57F1E12384378A810
:102940007C017D017B007A00793F7E007F071205C4
:10295000587DA97F901239B27D807F8E1239B29056
:0E296000010974FFF0A3742FF0A374A6F022F7
:103AAD00D2C0000000D2CD000000C2C00000002234
:0D3B3F00C2C0000000D2CD000000D2C022A4
:0B38E4001239081238EFAF0512390846
:1038EF00E4FFD2CD30C009EFC394FF50030F80F433
:0838FF00000000C2CD00000032
:01390700229D
:10390800E4FEEF25E0FFC2CD00000092C0000000F9
:10391800D2CD0000000EBE08E9C2CD000000D2C022
:033928000000009C
:01392B002279
:10392C00C2CD000000D2C000E4FED2CD0000EF25D5
:10393C00E0FDA2C0E4334DFF0000C2CD000EBE0876
:01394C00E991
:01394D002257
:10000E00AC07123AAD7FA01239081238EFAF0412C6
:05001E0038E4023B3F45
:023A0900AD0707
:103A0B00123AAD7FA01238E4123AAD7FA1123908F9
:093A1B001238EF12392C123B3F66
:013A2400227F
:102605005501570000000000000000000000000018
:082615000000010000000000BC
:03004300021B7429
:101B7400C0E0C0F0C083C082C0D075D000C000C037
:101B840001C002C003C004C005C006C007E59A3006
:101B9400E142539AFD90015CE0FEA3E0FFC3900193
:101BA4005BE09F90015AE09E501F900157E0FBA319
:101BB400E0FAA3E0F9A3E475F00112068085F0824F
:101BC400F58312057EF59B800B90015EE4F0E51F22
:101BD4006002C2B7E59A20E003021D2B539AFE303F
:101BE4000C0BC20C900164E4F0A3F0D209E51F646D
:101BF400026003021C85900162E0FEA3E0FFA3E003
:101C0400FCA3E0FDC39FEC9E507190015FE0FBA339
:101C1400E0FAA3E0F98D828C83E59B1205AB900179
:101C24006AE0FEA3E0FFC3ED9FEC9E50409001628A
:101C3400E0FCA3E0FDEF9DEE9C5032900167E0FBD9
:101C4400A3E0FAA3E0F9900164E0FEA3E0FFF582CB
:101C54008E8312057EFD90015FE0FBA3E0FAA3E012
:101C6400F98F828E8312057E6D6002C20990016530
:101C7400E004F07006900164E004F0851E12021D79
:101C84002B900162E0FEA3E0FFA3E0FCA3E0FDC310
:101C94009FEC9E507790015FE0FBA3E0FAA3E0F98C
:101CA4008D828C83E59B1205AB90016AE0FEA3E074
:101CB400FFC3ED9FEC9E5046900162E0FCA3E0FD63
:101CC400EF9DEE9C5038900167E0FBA3E0FAA3E09F
:101CD400F9900164E0FEA3E0FFF5828E8312057E95
:101CE400FD90015FE0FBA3E0FAA3E0F98F828E830D
:101CF40012057E6D600890016474FFF0A3F09001FA
:101D040065E004F07006900164E004F0900162E084
:101D1400FEA3E0FFC3900165E09F900164E09E4054
:101D2400069001667401F0D007D006D005D004D027
:101D340003D002D001D000D0D0D082D083D0F0D054
:021D4400E0328B
:023ADB00154F85
:0A3ADD00900166E0A84FF6FFE4F048
:033AE700054F2266
:0100290022B4
:102CF5008F428E418D408C3F85431FE51F700280BA
:102D05000343BA01E51F701790010C74FFF0A3741B
:102D150000F0A37429F0E4F5DBD290D2918020C2B3
:102D2500B7AB42AA41A940A83FE47F407E9CFDFC89
:102D35001207218F1EE51E7003751E01851E127573
:102D45009A10E47B04FAF9F89036481207E812075E
:102D550021AB42AA41A940A83F120721EFF404F58F
:102D6500D7E47B04FAF9F89036481207E8120721F0
:102D7500AB42AA41A940A83F120721C3E49FFFE443
:102D85009EFE74019DFDE49CFC78081207C18FD658
:102D9500438E1443AF0190010074FFF0A3743AF021
:052DA500A374DBF02225
:1037300090015FEBF0A3EAF0A3E9F0A3ECF0A3EDB6
:10374000F090016AE547F0A3E548F0900167E54491
:10375000F0A3E545F0A3E546F0D20CE4900166F055
:013760002246
:1037920090015EE07026900157EBF0A3EAF0A3E9F6
:1037A200F0E4A3F0A3F0A3ECF0A3EDF0A37401F016
:0F37B200E51F6002D2B7439A027F02227F0322F3
:0B3B580090015EE07002FF227F01225E
:10261D0055016C00000000000000000000000000EB
:08262D000000010000000000A4
:0300230002219522
:10219500C0E0C0F0C083C082C0D075D000C000C010
:1021A50001C002C003C004C005C006C00730993B8A
:1021B500C299900171E0FEA3E0FFC3900170E09F1A
:1021C50090016FE09E501F90016CE0FBA3E0FAA325
:1021D500E0F9A3E475F00112068085F082F583121B
:1021E500057EF5998005900173E4F020980302229D
:1021F500AAC298300B09C20B900179E4F0A3F090C4
:102205000177E0FEA3E0FFA3E0FCA3E0FDC39FECA4
:102215009E5077900174E0FBA3E0FAA3E0F98D826C
:102225008C83E5991205AB90017FE0FEA3E0FFC327
:10223500ED9FEC9E5046900177E0FCA3E0FDEF9DFD
:10224500EE9C503890017CE0FBA3E0FAA3E0F99006
:102255000179E0FEA3E0FFF5828E8312057EFD90F5
:102265000174E0FBA3E0FAA3E0F98F828E831205E7
:102275007E6D600890017974FFF0A3F090017AE01B
:1022850004F07006900179E004F0900177E0FEA378
:10229500E0FFC390017AE09F900179E09E400690AF
:1022A500017B7401F0D007D006D005D004D003D04F
:1022B50002D001D000D0D0D082D083D0F0D0E0328F
:023AEA00154F76
:0A3AEC0090017BE0A84FF6FFE4F024
:033AF600054F2257
:103384008F428E418D408C3F759850438E40538EB2
:10339400FE53890FE47B04FAF9F89036481207E8E3
:1033A400120721AB42AA41A940A83F120721EFF41A
:1033B40004F58BE47B04FAF9F89036481207E81216
:1033C4000721AB42AA41A940A83F120721C3E49FA9
:1033D400FFE49EFE74019DFDE49CFC78081207C185
:1033E4008F8DC2ABD28ED2AC9000FD74FFF0A3746B
:0733F4003AF0A374EAF02295
:10376100900174EBF0A3EAF0A3E9F0A3ECF0A3ED70
:10377100F090017FE547F0A3E548F090017CE54436
:10378100F0A3E545F0A3E546F0D20BE490017BF010
:013791002215
:1038BC00900173E0701F90016CEBF0A3EAF0A3E9A8
:1038CC00F0E4A3F0A3F0A3ECF0A3EDF0A37401F0EB
:0838DC00D2997F02227F032232
:0B3B6300900173E07002FF227F01223E
:1000460002038EE86480F8E933E83360110460F057
:10005600ED33EC337009E8FCE9FDEAFEEBFF220420
:1000660060DED3EB9FEA9EE99DE8C2E78CF0C2F71B
:1000760095F0400CE8CCF8E9CDF9EACEFAEBCFFBE7
:1000860012035985D0F05804700320D5B3E80470E4
:10009600075002B2D502039892D5EC0460F7E4CC7F
:1000A600C0E0C398F8603B94186008400DD0E0FBB0
:1000B600020370E4FBFAC9FC8028E830E406E4C9D0
:1000C600FBE4CAFCE830E305E4C9CACBFCE8540704
:1000D6006010F8C3E913F9EA13FAEB13FBEC13FC0F
:1000E600D8F130F52FC3E49CFCEF9BFFEE9AFEEDB2
:1000F60099FDD0E0FBEF4E4D4C701222DB0302035C
:1001060095EC2CFCEF33FFEE33FEED33FDED30E7DF
:10011600EB020370EF2BFFEE3AFEED39FDD0E0FB6C
:1001260050130BBB0003020398ED13FDEE13FEEF15
:0801360013FFEC13FC0203703F
:10013E00EC4D6011E8497017ED33EC3304600DE4BB
:10014E00FCFFFEFD22E933E8330470F802038E1241
:10015E00035958046009E4CC248150062850090242
:10016E000398284003020395C0E0EB4A7044B9801F
:10017E0006D0E0FB020384EF4E701CBD8008EBFF3F
:10018E00EAFEE9FD80EBE98DF0A4FEE5F002022720
:10019E00E9CDF9EAFEEBFFEF89F0A4FCE5F0CE899C
:1001AE00F0A42EFFE435F0CD89F0A42DFEE435F059
:1001BE008067EF4E7005BD80D780C3EF8BF0A4AC87
:1001CE00F0EE8BF0A42CFCE435F0F8EF8AF0A42CC2
:1001DE00E5F038FCE433CB8DF0A42CFCE5F03BF8D5
:1001EE00EE8AF0A42CFCE5F038F8E433CF89F0A4C5
:1001FE002CFCE5F038CF3400CE89F0A42FFFE5F0CB
:10020E003EFEE433C98DF0A42EFEE5F039CD8AF022
:10021E00A42FFFE5F03EFEE43DFD33D0E0FB50079A
:10022E000BBB000F020398EC2CFCEF33FFEE33FEFA
:06023E00ED33FD02037028
:10024400020398EC5D046005E85904700302038E10
:10025400120359580460F6EC4860F2EC7004FDFE99
:10026400FF22C860DB2481C85009C398600250068D
:100274000203959850CAF582E9294B4A7005AB826E
:1002840002038475F0007C1A7880C3EF9BEE9AED2C
:1002940099400DC3EF9BFFEE9AFEED99FDE842F005
:1002A400DC23ACF0D0E0FFD0E0FED0E0FDAB822058
:1002B400E7101BEB60BAEC2CFCEF33FFEE33FEEDE2
:1002C40033FD020370E803F830E705C0F075F00071
:1002D400EF2FFFEE33FEED33FD40B830E7C280AAC6
:1002E40075F020800E75F010800575F0087D007E95
:1002F400007F003392D530D5031207B3EC3340109E
:10030400EF33FFEE33FEED33FDEC33FCD5F0ED229D
:0E031400E5F0247EA2D513CC92E7CDCEFF22D9
:10032200EDD2E7CD33EC3392D524814006E4FFFED3
:10033200FDFC22FCE4CFCECDCC24E0501174FF8032
:10034200EDC3CC13CCCD13CDCE13CECF13CF0470CF
:07035200F030D5DE0207B315
:102E540002038E22EDA2E7D2E7F9EC3340F260F3ED
:102E6400B4FF08ED547F70E8020398F82481C2E0AF
:102E7400C0E0F40428FAC313FCED92E7FD8C3F8D07
:102E8400408E418F42EEA2E7E9BA7F02C3133400B9
:102E94009400FA75F091A4E5F013F494FE8AF0A47A
:102EA40033E5F033248CD313FDE492E7FE7F007CFA
:102EB4003F758302ECC0E0F8EDC0E0F9EEC0E0FA43
:102EC400EFC0E0FBAC3FAD40AE41AF42120247D091
:102ED400E0FBD0E0FAD0E0F9D0E0F812004DED6468
:102EE40080FD30E7011CD583CBED33CC33F8D0E043
:0A2EF400A2E71328C313CC13FD223C
:101EF2003A70FA83BCAAE9E43E81E0F8BF9DE9E6C4
:101F02003F80000039283C1ABB9969663DA335E33E
:101F1200BF255DE73FC90FDB418DDBCCC44936EEFF
:101F220045C9913FC5B0F83D3F800000C317F53465
:101F3200452FFA73C60AFDDD121FE104A2E1920FDA
:101F42001420E015901EF2740412043B8026121F26
:101F5200E130E102B20F20E0EB8C3F8D408E418FE9
:101F620042901F06740412043BA83FA940AA41AB49
:101F72004212013EED4C6007300F04EC6480FC22FB
:101F8200121FE1C0E08C3F8D408E418F42901F2A8C
:101F9200740312043BA83FA940AA41AB4212013E7E
:101FA200ECC53FFCEDC540FDEEC541FEEFC542FF6D
:101FB200901F1A740312043BD082A83FA940AA4181
:101FC200AB42E58230E007120247B20F80A6EFCBA8
:101FD200FFEECAFEEDC9FDECC8FC1202478095ED8A
:101FE20033EC547FCC33920F24605007D0E0D0E022
:101FF20002038E7B837AF97922783E12013EEDF953
:1020020033ECF83324815011EFFBEEFA1203221263
:1020120002E4ECB2E7FC12004DED33EC33602F2406
:1020220003F8C313FCED92E7FDE82481E4501FECB2
:10203200F8EDF9EEFAEFFB120322EF04C2E0FCF531
:10204200821202EEECB2E7FC12004DE58203FAEDD9
:0E20520033EC3360071413FCED92E7FDEA2235
:1036C400ECC0E0F8EDC0E0F9EEC0E0FAEFC0E0FBDA
:1036D40012013EEC6480FC7B007A007980783F1212
:1036E400004D122E58D0E0CFFBD0E0CEFAD0E0CD82
:0B36F400F9D0E0CCF81202470222E5FA
:102759008F428E418D408C3FE4FFFE7D807C3FABF4
:1027690042AA41A940A83F1203BD7009AF42AE4138
:10277900AD40AC3F22AF42AE41AD40AC3F1203A3E6
:10278900FBAF46AE45AD44AC431203A3FFBF0108FE
:10279900E4FFFE7D807C3F22EF64046022EB640449
:1027A900601DBB0127E4FFFEFDFCAB46AA45A94419
:1027B900A8431203BD60084006E4FFFEFDFC227435
:1027C900FFF546F545F544F543022867E4F547F575
:1027D90048FFFEFDFCAB42AA41A940A83F1203BD38
:1027E900504BAF46AE45AD44AC431203228E478FE2
:1027F90048AC47AD48EC1202E9C8ECC8C9EDC9CAF2
:10280900EECACBEFCBAF46AE45AD44AC431200495F
:10281900E4FBFAF9F81203BD70A5AF42AE41AD4031
:10282900AC3F12042A8F428E418D408C3FAF42AE9D
:1028390041AD40AC3F122094AB46AA45A944A843F8
:1028490012013E1230838F468E458D448C43E548F4
:1028590030E00B12042A8F468E458D448C43AF46D7
:07286900AE45AD44AC432273
:10035900E9D2E7C933E833F892D5EDD2E7CD33ECEA
:0703690033FC5002B2D52263
:10037000EC30E7100FBF000C0EBE00080DBD0004EE
:100380000BEB6014A2D5EB13FCED92E7FD2274FF9A
:10039000FCFDFEFF22E480F8A2D574FF13FC7D80F3
:0303A000E480EF07
:1003A300ED33EC33601004700FED547F700574026D
:0A03B30092E0227404220422E422E6
:1003BD0074F8CC6480CCC86480C8F582046043C3F3
:1003CD00EB9FF5F0EA9E42F0E99D42F0E89C45F086
:1003DD0060305018E5825FFFE582F42B5582FB50AB
:1003ED00210ABA001D09B90019088016E5825BFBC8
:1003FD00E582F42F5582FF50090EBE00050DBD009C
:10040D00010CC3EB9FF5F0EA9E42F0E99D42F0E846
:0D041D009C45F06007CC4820E701B3EC22BD
:10042A00ED33EC33600A047003BD8004ECB2E7FCE0
:01043A00229F
:10043B00C0E0EFFBEEFAEDF9ECF812013ED0E0F57F
:10044B00F0EFFBEEFAEDF9ECF81207E8A3A3A3A388
:10045B00E8C0E0E9C0E0EAC0E0EBC0E0C0F01201A8
:10046B003E1207F8A3A3A3A312004DD0F0D0E0FBDC
:0D047B00D0E0FAD0E0F9D0E0F8D5F0D422BE
:10304B0033DA929E35B16011377FE5FE39218489E1
:10305B003AAEC3FF3C1D955B3D6358473E75FDF093
:10306B003F3172183F800000C2D502039802038ED5
:10307B00BD80FA50F3020395ED33EC330460F17B22
:10308B003B7AAA79B8783F12013EED33EC3392D5F7
:10309B00247B5011A2D570DB500BED4480240450DF
:1030AB0004A2D580CEEFFBEEFAEDF9ECF812032279
:1030BB00EFF582F404FC1202EE12004DC082903048
:1030CB004B740912044AED33CC33D0F092D525F072
:0A30DB00A2D57001C313CC13FD222F
:102060003E9248DA3ECCCCCD3F2AAAAB40000000DD
:102070003F8000003F9837F03FB504F33FD744FC62
:102080003E3172173EB172173F0515913EDE5BD9A6
:10209000D20F8002C20FEDD2E7F8CD33EC330470DB
:1020A0000BBD800592D502039802038E40FBD3142A
:1020B00060F2F5F07C3FEE7A00C39496C8948B40B2
:1020C000230AC89469C8941A401A0AC89468C89424
:1020D0001F40110AC8945AC89425400805F07A0098
:1020E000CDC2E7CDC0F08C498D4A8E4B8F4CEA2390
:1020F00023C0E02470F582E43420F5831207F8123F
:10210000004DECC0E0EDC0E0EEC0E0EFC0E0120733
:10211000E8A849A94AAA4BAB4C120049D0E0FBD031
:10212000E0FAD0E0F9D0E0B2E7F81202478C498D2E
:102130004A8E4B8F4C902060740312043BA849A92F
:102140004AAA4BAB4C12013ED0E0600F247CF582D2
:10215000E43420F5831207F812004D8C498D4A8E25
:102160004B8F4CD0E0C3947FFDE49400FC1202E955
:102170007B187A727931783F12013EA849A94AAAA0
:102180004BAB4C12004D300F0B7BD97A5B79DE786C
:052190003E12013E2299
:1022C500BE1249253E4CCCCDBEAAAAAB3F8000002C
:1022D5003E7ADBB03EED63383F24BC7D3F490FDBE2
:1022E500ED33ECC2E7CC33920FB4FF13ED547F60AE
:1022F5000302038E7FDB7E0F7DC97C3F0223E0C294
:1023050010C3947F401E7007EDD2E794904015EFFF
:10231500FBEEFAEDF9ECF87F007E007D807C3F1244
:102325000247D210ED33EC33248430E705E4C0E0F6
:10233500806D04FAEDD2E754F0C333DAFD54073467
:10234500002323C0E0CCC0E0F8EDC0E0F9EEC0E02A
:10235500FAEFC0E0FBE41202EEEC24FEFC8C3F8DAC
:10236500408E418F4212013E7B007A007980783F92
:1023750012004DECC53FB2E7FCEDC540FDEEC54191
:10238500FEEFC542FFD0E0FBD0E0FAD0E0F9D0E0A7
:10239500F812004DA83FA940AA41AB421202478C52
:1023A5003F8D408E418F429022C5740312043BA895
:1023B5003FA940AA41AB4212013ED0E0600F24D1B3
:1023C500F582E43422F5831207F812004D30100B24
:1023D5007BDB7A0F79C978BF12004DED33EC3360A2
:0823E50006ECA20F92E7FC22B6
:0300000002317852
:0C317800787FE4F6D8FD75814F0231BF6E
:10048800E709F608DFFA8046E709F208DFFA803E56
:1004980088828C83E709F0A3DFFA8032E309F60843
:1004A800DFFA8078E309F208DFFA807088828C83AB
:1004B800E309F0A3DFFA806489828A83E0A3F6085F
:1004C800DFFA805889828A83E0A3F208DFFA804C39
:1004D80080D280FA80C680D4806980F28033801010
:1004E80080A680EA809A80A880DA80E280CA803379
:1004F80089828A83ECFAE493A3C8C582C8CCC583F1
:10050800CCF0A3C8C582C8CCC583CCDFE9DEE780C0
:100518000D89828A83E493A3F608DFF9ECFAA9F03F
:10052800EDFB2289828A83ECFAE0A3C8C582C8CC95
:10053800C583CCF0A3C8C582C8CCC583CCDFEADEAE
:10054800E880DB89828A83E493A3F208DFF980CC10
:1005580088F0EF60010E4E60C388F0ED2402B40409
:100568000050B9F582EB2402B4040050AF232345B0
:0605780082239004D873F9
:10057E00BB010CE58229F582E5833AF583E0225032
:10058E0006E92582F8E622BBFE06E92582F8E2227C
:0D059E00E58229F582E5833AF583E4932296
:1005AB00F8BB010DE58229F582E5833AF583E8F086
:1005BB00225006E92582C8F622BBFE05E92582C832
:0205CB00F2221A
:1005CD00EF8DF0A4A8F0CF8CF0A428CE8DF0A42E42
:0205DD00FE22FC
:1005DF00BC000BBE0029EF8DF084FFADF022E4CC00
:1005EF00F875F008EF2FFFEE33FEEC33FCEE9DECC9
:1005FF00984005FCEE9DFE0FD5F0E9E4CEFD22ED0F
:10060F00F8F5F0EE8420D21CFEADF075F008EF2F58
:10061F00FFED33FD4007985006D5F0F222C398FD49
:05062F000FD5F0EA22E6
:10063400C2D5EC30E709B2D5E4C39DFDE49CFCEEE1
:1006440030E715B2D5E4C39FFFE49EFE1205DFC375
:10065400E49DFDE49CFC80031205DF30D507C3E470
:060664009FFFE49EFE2250
:10066A00C5F0F8A3E028F0C5F0F8E582158270021B
:06067A001583E038F022B8
:10068000A3F8E0C5F025F0F0E5821582700215832D
:06069000E0C838F0E8228A
:10069600E88FF0A4CC8BF0A42CFCE98EF0A42CFC03
:1006A6008AF0EDA42CFCEA8EF0A4CDA8F08BF0A481
:1006B6002DCC3825F0FDE98FF0A42CCD35F0FCEBE0
:1006C6008EF0A4FEA9F0EB8FF0A4CFC5F02ECD39A5
:0F06D600FEE43CFCEAA42DCE35F0FDE43CFC2212
:1006E50075F008758200EF2FFFEE33FECD33CDCCCC
:1006F50033CCC58233C5829BED9AEC99E58298404F
:100705000CF582EE9BFEED9AFDEC99FC0FD5F0D62B
:10071500E4CEFBE4CDFAE4CCF9A88222B800C1B955
:100725000059BA002DEC8BF084CFCECDFCE5F0CB93
:10073500F97818EF2FFFEE33FEED33FDEC33FCEBCC
:1007450033FB10D703994004EB99FB0FD8E5E4F987
:10075500FA227818EF2FFFEE33FEED33FDEC33FC74
:10076500C933C910D7059BE99A4007EC9BFCE99A68
:10077500F90FD8E0E4C9FAE4CCFB2275F010EF2FAD
:10078500FFEE33FEED33FDCC33CCC833C810D707AD
:100795009BEC9AE899400AED9BFDEC9AFCE899F8E8
:0E07A5000FD5F0DAE4CDFBE4CCFAE4C8F9227B
:10358500C2D5E830E70FB2D5E4C39BFBE49AFAE471
:1035950099F9E498F8EC30E717B2D51235BB120764
:1035A50021E4C39BFBE49AFAE499F9E498F88003D3
:1035B50012072130D50DE4C39FFFE49EFEE49DFD77
:0435C500E49CFC2264
:0E07B300C3E49FFFE49EFEE49DFDE49CFC2257
:1007C100E8600FECC313FCED13FDEE13FEEF13FF16
:0307D100D8F1223A
:1007D400E86010ECA2E713FCED13FDEE13FEEF133B
:0407E400FFD8F02228
:1007E800E493FC740193FD740293FE740393FF2257
:1007F800E493F8740193F9740293FA740393FB2257
:0C080800ECF0A3EDF0A3EEF0A3EFF02263
:0C081400A42582F582E5F03583F58322EF
:060820008A838982E47363
:10318400022C2CE493A3F8E493A34003F68001F209
:1031940008DFF48029E493A3F85407240CC8C3334C
:1031A400C4540F4420C8834004F456800146F6DF1B
:1031B400E4800B0102040810204080902513E47E73
:1031C400019360BCA3FF543F30E509541FFEE49310
:1031D400A360010ECF54C025E060A840B8E493A3D7
:1031E400FAE493A3F8E493A3C8C582C8CAC583CA02
:1031F400F0A3C8C582C8CAC583CADFE9DEE780BEBA
:0126350000A4
:00000001FF
